:060000000A128A110C280F
:10000800FE00030EF1000A08F2000A128A1186297E
:100018000A128A110F280A128A119D210A128A11BE
:10002800F9000A128A119E210A128A11FA00830124
:100038000A128A11572983120313A0008316031387
:1000480087127603031D29282A288028871173031D
:10005800031D2F283028322894173B287308031DC6
:10006800362837283B287F30F8007808940574082C
:100078007504031D402841284D28BF30F800780832
:10008800940577082038F80078088312031394043D
:10009800C52874037504031D522853285C281417B7
:1000A80077082038F8007808831203139404C528C9
:1000B800023074067504031D622863286F28BF3058
:1000C800F8007808940577083038F8007808831223
:1000D80003139404C528033074067504031D75289A
:1000E80076287F28141777083038F80078088312A4
:1000F80003139404C528C5287608031D8428852879
:10010800C528871574087504031D8B288C28972823
:10011800BF30F800780894052430F8007808831276
:1001280003139404C52874037504031D9C289D2893
:10013800A52814172430F8007808831203139404B0
:10014800C528023074067504031DAB28AC28B728EF
:10015800BF30F800780894053430F8007808831226
:1001680003139404C528033074067504031DBD28C1
:10017800BE287F2814173430F80078088312031338
:10018800940483122003031DCA28CB28D328C03027
:10019800F80078088B04831603138C15DE282008D2
:1001A800031DD728D828DE28F730F80078088316EA
:1001B80003138C050800F50007307506031DE528B4
:1001C800E628EB287030831603138F044229063083
:1001D8007506031DF028F128F828831603130F0865
:1001E8008F3960388F00422905307506031DFD28B8
:1001F800FE280529831603130F088F3950388F00FE
:10020800422904307506031D0A290B291229831671
:1002180003130F088F3940388F00422903307506C1
:10022800031D172918291F29831603130F088F394F
:1002380030388F00422902307506031D24292529EC
:100248002C29831603130F088F3920388F00422971
:100258007503031D302931293829831603130F0824
:100268008F3910388F0042297508031D3C293D2914
:1002780042298F30831603138F0542297303031D08
:10028800462947294B29831603130F145629730847
:10029800031D4F2950295629FE30F400740883168F
:1002A80003138F050800F30107300A128A11DF20B3
:1002B8000A128A110A128A1199210A128A11F30163
:1002C8000030F400F500F601023083120313A10098
:1002D8002108F70001300A128A111F200A128A1118
:1002E8007A088312031393000F307906031D7D29C2
:1002F8007E298129073085007829850182290A12FB
:100308008A110C28831203131308F0007008F900EF
:100318007A089300F730F00070088C0572088A009C
:10032800710E8300FE0E7E0E0900831603138501ED
:0603380008000F340A3436
:08400000FF3FFF3FFF3FFF3FC0
:04400E00D420FF3F7C
:00000001FF
