:100000000C9437000C94B8000C94B8000C94B80011
:100010000C94B8000C94B8000C94B8000C94B80080
:100020000C94B8000C94B8000C94B8000C94B80070
:100030000C94B8000C94B8000C94B8000C94B80060
:100040000C94B8000C94B8000C94B8000C94B80050
:100050000C94B8000C9461000C94B8000C94B80097
:100060000C94B8000C94B800010001018000112428
:100070001FBECFEFD8E0DEBFCDBFE8E6F0E040E046
:1000800017C0B591A59135912591059107FD0CC03B
:1000900095918591EF01F92FE82F05900D92A21708
:1000A000B307D9F7FE0104C01D92A217B307E1F709
:1000B000ED36F40731F70E949A000C94A500F894ED
:0200C000FFCF70
:1000C2001F920F920FB60F9211248F939F93EF936B
:1000D200FF9398B180E2982798B990917900909314
:1000E200000195B99091000197BDEAE7F0E0908197
:1000F2009064908398B1892788B9FF91EF919F917D
:0C0102008F910F900FBE0F901F9018956A
:10010E00ECE7F0E0808180668083EAE7F0E08081B2
:10011E00806880838081876080838081886480830B
:06012E0088B188B90895B4
:100134008FEF8AB984B980E287B978940E948700E6
:060144000E94B000FFCF95
:10014A00EC010E94BD000E94BC00CE010E94BE00CC
:06015A00CE010E94BA0074
:1001600084B5836884BD85B5836085BD17BC08955B
:040170000C940000EB
:040174000E945F0086
:020178000895E8
:02017A000895E6
:02017C000895E4
:00000001FF
