:100000000C9437000C94EE030C94EE030C94EE0366
:100010000C94EE030C94EE030C94EE030C94EE039C
:100020000C94EE030C94EE030C94EE030C94EE038C
:100030000C94EE030C94EE030C94EE030C94EE037C
:100040000C94EE030C94EE030C9499020C94EE03C2
:100050000C94EE030C94EE030C94EE030C94EE035C
:100060000C94EE030C94EE030100010180001124B6
:100070001FBECFEFD8E0DEBFCDBFE8E6F0E040E046
:1000800017C0B591A59135912591059107FD0CC03B
:1000900095918591EF01F92FE82F05900D92A21708
:1000A000B307D9F7FE0104C01D92A217B307E1F709
:1000B000ED36F40731F70E947E030C94A703F89401
:0200C000FFCF70
:1000C2000F931F93CF93DF93FC01E901611137C0B6
:1000D200411135C0A2ECB0E08C918F738C93A0ECEF
:1000E200B0E08C918D7F8C93CF01FF0FAA0BBB0BDD
:1000F200880F991FAA1FBB1F880F991FAA1FBB1F1A
:100102009C01AD01220F331F441F551F220F331FC5
:10011200441F551F60E072E18AE790E00E940503E8
:10012200CA01B90161507109810991090E942D0228
:100132000E94DB036093C4007093C5005BC0611131
:1001420033C0413089F5A2ECB0E08C918F738C936F
:10015200A0ECB0E08C9182608C93CF01FF0FAA0BD0
:10016200BB0B880F991FAA1FBB1F880F991FAA1FBD
:10017200BB1F9C01AD01220F331F441F551F60E0BE
:1001820072E18AE790E00E940503CA01B901615059
:100192007109810991090E942D020E94DB0360937B
:1001A200C4007093C50026C0613021F5A2ECB0E016
:1001B2009C919F7790649C93CF01FF0FAA0BBB0B7E
:1001C2009C01AD01220F331F441F551F60E072E1F5
:1001D2008AE790E00E940503CA01B90161507109E2
:1001E200810991090E942D020E94DB036093C400E1
:1001F2007093C500B801CE010E947001E2ECF0E0FC
:1002020080818E7C8083DF91CF911F910F91089521
:1002120011C00E94C00338F00E94C70320F039F4D5
:100222009F3F19F426F40C94EB030EF4E095E7FBE0
:100232000C94D503E92F0E94E30258F3BA17620720
:1002420073078407950720F079F4A6F50C94CE0382
:100252000EF4E0950B2EBA2FA02D0B01B9019001DF
:100262000C01CA01A0011124FF27591B99F0593F23
:1002720050F4503E68F11A16F040A22F232F342F6B
:100282004427585FF3CF469537952795A795F040B9
:100292005395C9F77EF41F16BA0B620B730B840BCE
:1002A200BAF09150A1F0FF0FBB1F661F771F881F86
:1002B200C2F70EC0BA0F621F731F841F48F48795DE
:1002C20077956795B795F7959E3F08F0B0CF9395D0
:0E02D200880F08F09927EE0F979587950895ED
:1002E0008530910559F4E1ECF0E080818B7F8083CB
:1002F000E2ECF0E08081897F808343C08630910505
:1003000061F4E1ECF0E080818B7F8083E2ECF0E04F
:1003100080818B7F8260808334C08730910561F457
:10032000E1ECF0E080818B7F8083E2ECF0E0808183
:100330008D7F8460808325C08830910559F4E1EC7D
:10034000F0E080818B7F8083E2ECF0E0808186604A
:10035000808317C0099759F4E1ECF0E08081846054
:100360008083E2ECF0E08081866080830AC0E1EC6B
:10037000F0E080818B7F8083E2ECF0E0808186601A
:1003800080836130710531F4E2ECF0E08081877F99
:10039000808308956230710529F4E2ECF0E08081F9
:0603A000886080830895CF
:1003A600EF92FF920F931F93CF93DF938B019C01E4
:1003B60057E136952795179507955A95D1F7112741
:1003C600063911059CF58B019C01002737FD039525
:1003D600112722273327780120E030E040E05BE454
:1003E600E114F10449F00E94B20320E030E040E05D
:1003F6005BE40E94B30308C00E94B30320E030E030
:1004060040E05BE40E94B2038B01D82FC92F20E0A5
:1004160030E0A9010E94E00381110DC040E030E008
:1004260020E0E114F10461F450E00BC0462F372FB1
:10043600282F592F06C0402F312F2D2F5C2F01C09A
:1004460050E8642F732F822F952FCDB7DEB7E6E0E5
:040456000C946F0390
:10045A00E89409C097FB3EF4909580957095619554
:10046A007F4F8F4F9F4F9923A9F0F92F96E9BB270A
:10047A009395F695879577956795B795F111F8CF86
:10048A00FAF4BB0F11F460FF1BC06F5F7F4F8F4FF1
:10049A009F4F16C0882311F096E911C0772321F0E7
:1004AA009EE8872F762F05C0662371F096E8862F7F
:1004BA0070E060E02AF09A95660F771F881FDAF7D6
:0A04CA00880F9695879597F908951D
:1004D4000E94EB0288F09F5798F0B92F9927B751E3
:1004E400B0F0E1F0660F771F881F991F1AF0BA95D4
:1004F400C9F714C0B13091F00E94CE03B1E0089561
:100504000C94CE03672F782F8827B85F39F0B93F52
:10051400CCF3869577956795B395D9F73EF4909586
:0E0524008095709561957F4F8F4F9F4F089582
:100532001F920F920FB60F9211242F933F934F9356
:100542005F936F937F938F939F93AF93BF93EF9339
:10055200FF930E94E50380930001FF91EF91BF9109
:10056200AF919F918F917F916F915F914F913F9149
:0C0572002F910F900FBE0F901F90189556
:10057E00990F0008550FAA0BE0E8FEEF16161706A6
:10058E00E807F907C0F012161306E407F50798F00E
:10059E00621B730B840B950B39F40A2661F0232B27
:1005AE00242B252B21F408950A2609F4A140A695A3
:0805BE008FEF811D811D0895DE
:1005C60057FD9058440F551F59F05F3F71F04795FE
:1005D600880F97FB991F61F09F3F79F087950895E3
:1005E600121613061406551FF2CF4695F1DF08C002
:1005F600161617061806991FF1CF8695710561051F
:0406060008940895B7
:10060A00A1E21A2EAA1BBB1BFD010DC0AA1FBB1F0C
:10061A00EE1FFF1FA217B307E407F50720F0A21B7E
:10062A00B30BE40BF50B661F771F881F991F1A94EB
:10063A0069F760957095809590959B01AC01BD0115
:04064A00CF0108953F
:10064E00813049F4613039F4E1ECF0E08081806969
:10065E00808378940895813049F4611107C0E1ECEC
:10066E00F0E080818F77806180830895811105C0CD
:0C067E00E1ECF0E080818F76808308952D
:10068A00813049F4613039F4E1ECF0E0808188642A
:10069A00808378940895813049F4611107C0E1ECB0
:1006AA00F0E080818F7B886080830895811105C086
:0C06BA00E1ECF0E08081877B80830895F4
:1006C6002A88398848885F846E847D848C849B84DC
:1006D600AA84B984C884DF80EE80FD800C811B81EA
:1006E600AA81B981CE0FD11D0FB6F894DEBF0FBE19
:0606F600CDBFED010895E7
:1006FC000E94E80301E010E028E030E040E060E018
:10070C0080E895E20E94610061E081E00E9427038D
:10071C0060E080E00E9445038091000185B9FCCF28
:10072C00092E0394000C11F4882352F0BB0F40F4F3
:10073C00BF2B11F460FF04C06F5F7F4F8F4F9F4F33
:02074C0008950E
:10074E00EC010E94F3030E94F203CE010E94F40317
:06075E00CE010E94F00331
:0E0764005058BB27AA270E9409010C94960347
:0E0772000E946A026894B1110C94CF0308959E
:0E07800000240A941616170618060906089596
:0E078E0000240A941216130614060506089598
:0E079C00E894BB2766277727CB0197F90895CD
:0C07AA0097F99F6780E870E060E0089518
:0A07B6000E94D3010E94B9030895C8
:0A07C0000E94BF0208F481E00895D2
:0607CA008091C6000895B5
:0607D0008FEF84B90895CB
:0607D6009FEF80EC089586
:0407DC000C94000079
:0407E0000E945F0014
:0207E400089576
:0207E600089574
:0207E800089572
:00000001FF
