:02000000B42F1B
:100F3A00F200030EF3000C1FAF2F1E08F00003137C
:100F4A008316981CAF2F03138312700899000C1391
:100F5A009F14AF2F730E8300F20E720E0900BC2786
:100F6A00CB27D627E327EA279F14BB2FBB2F0317CC
:100F7A008316880130308900031383169F012130BC
:100F8A00860003138312B5309F00080003138316EB
:100F9A00850187018801031383128501870188016E
:100FAA00080003138312C0308B00031383164030EA
:100FBA008C000313831200308C000800031383167D
:100FCA00C330810070308F04080003138316003089
:100FDA009A000C30990002309800031783164030AB
:100FEA008700031383128030980003138316981620
:060FFA000313831208003E
:04400E00D420FF3F7C
:00000001FF
