:100000000C9434000C94B3000C94B3000C94B30023
:100010000C94B3000C94B3000C94B3000C94B30094
:100020000C94B3000C94B3000C94B3000C94B30084
:100030000C94B3000C94B3000C94B3000C94B30074
:100040000C94B3000C94B3000C94B3000C94B30064
:100050000C94B3000C94B3000C94B3000C94B30054
:100060000C94B3000C94B30011241FBECFEFD8E062
:10007000DEBFCDBFE8E6F0E040E017C0B591A59146
:1000800035912591059107FD0CC095918591EF0162
:10009000F92FE82F05900D92A217B307D9F7FE01AB
:1000A00004C01D92A217B307E1F7E836F40731F751
:0C00B0000E945E000C949A00F894FFCFB0
:1000BC000E94AD000E948D000E948D000E94A50040
:1000CC0086E290E00E946F008AEA90E00E947E0037
:0200DC00F1CF62
:1000DE008093BB0084E88093BC008091BC00882391
:0E00EE00E4F78091B900887F8034D9F7089537
:1000FC008093BB0084E88093BC008091BC00882373
:0E010C00E4F78091B900887F8832D9F7089512
:10011A0084EA8093BC008091BC008823E4F7809134
:0A012A00B900887F8830D9F70895E6
:10013400EC010E94B8000E94B700CE010E94B900F1
:06014400CE010E94B5008F
:10014A0084E98093BC008091BC0084FFFCCF0895B1
:0C015A0081E08093B8001092B900089575
:040166000C940000F5
:04016A000E945C0093
:02016E000895F2
:020170000895F0
:020172000895EE
:00000001FF
