:100000000C943A000C9412010C9412010C941201FD
:100010000C9412010C9412010C9412010C94120114
:100020000C9412010C9412010C9412010C94120104
:100030000C9412010C9412010C9412010C941201F4
:100040000C9412010C94E3000C9412010C94120114
:100050000C9412010C9412010C9412010C941201D4
:100060000C9412010C9412010100010100023201F2
:100070000101028011241FBECFEFD8E0DEBFCDBF4B
:10008000E8E6F0E040E017C0B591A59135912591E3
:10009000059107FD0CC095918591EF01F92FE82F8F
:1000A00005900D92A217B307D9F7FE0104C01D9267
:1000B000A217B307E1F7E437F40731F70E94CE0047
:0800C0000C940401F894FFCF39
:1000C800EF92FF920F93CF93DF93C82FD62F7A0129
:1000D800213069F484B18F7E84B984B18C6284B98B
:1000E8008CB580618CBD802F0E94F5000BC021115A
:1000F80009C084B1806184B984B1837D84B98CB529
:100108008F7E8CBDC13031F4D13021F48CB5806E36
:100118008CBD1AC0C11107C0D11105C08CB58F7133
:1001280080648CBD11C0C13039F4D11105C08CB5C3
:100138008F7D806C8CBD08C0C11106C0D13021F400
:100148008CB58F7180668CBDE114F10421F48CB5F7
:10015800837F8CBD19C081E0E816F10429F48CB5C1
:10016800837F88608CBD10C082E0E816F10429F412
:100178008CB5877F84608CBD07C083E0E816F104E6
:1001880019F48CB58C608CBDDF91CF910F91FF90E5
:04019800EF90089547
:10019C000E940F0108E020E040E050E061E081E0C7
:1001AC000E9464008FE19EE40197F1F700C000000B
:0A01BC007894809100018EBDFFCF02
:1001C6001F920F920FB60F9211248F938EB58093C4
:1001D6000101809100018EBD8F910F900FBE0F908F
:0401E6001F901895B9
:1001EA00823010F0883021F49DB591609DBD03C026
:0E01FA009DB59E7F9DBD9CB5892B8CBD089543
:10020800EC010E9417010E941601CE010E941801FC
:06021800CE010E9414015A
:06021E0017B818B808959E
:040224000C94000036
:040228000E946200CE
:02022C00089533
:02022E00089531
:0202300008952F
:01023200408B
:00000001FF
