:100000000C9437000C94F0000C94F0000C94F00069
:100010000C94F0000C94F0000C94F0000C94F000A0
:100020000C94F0000C94F0000C94F0000C94F00090
:100030000C94F0000C94F0000C94F0000C94F00080
:100040000C94F0000C94F0000C94F0000C94F00070
:100050000C94F0000C94F0000C94F0000C94F00060
:100060000C9461000C94F000010002FF8000112448
:100070001FBECFEFD8E0DEBFCDBFE8E6F0E040E046
:1000800017C0B591A59135912591059107FD0CC03B
:1000900095918591EF01F92FE82F05900D92A21708
:1000A000B307D9F7FE0104C01D92A217B307E1F709
:1000B000ED36F40731F70E94E2000C94D700F89473
:0200C000FFCF70
:1000C2001F920F920FB60F9211248F939F93EF936B
:1000D200FF938091B900887F803649F48FEF809337
:1000E2000001ECEBF0E08081856C808356C080914A
:1000F200B900887F803821F59091BB008091000182
:100102008F3F41F490930001ECEBF0E08081856C2D
:10011200808343C0E82FF0E0E050FE4F90838F5F72
:10012200809300018F3F31F0ECEBF0E08081856C31
:10013200808333C0ECEBF0E08081856880832DC042
:100142008091B900887F883B19F59091BB0080911E
:1001520000018F3F11F490930001E0910001F0E063
:10016200EF5FFE4F80818093BB00809100018F5F23
:10017200809300018F3F31F0ECEBF0E08081856CE1
:1001820080830BC0ECEBF0E080818568808305C042
:10019200ECEBF0E0808185648083FF91EF919F9189
:0C01A2008F910F900FBE0F901F901895CA
:1001AE00EC010E94F5000E94F400CE010E94F600C0
:0601BE00CE010E94F200D8
:1001C40082E30E94EA00789480E880930101FCCFE6
:0C01D4008093BA0085EC8093BC00089575
:0401E0000C9400007B
:0401E4000E945F0016
:0201E800089578
:0201EA00089576
:0201EC00089574
:00000001FF
