:060000000A128A11FC2F18
:100F0A000A128A11A1270A128A11831603131114CD
:100F1A0008000A128A11A1270A128A1183160313DA
:100F2A00111508000A128A11A1270A128A117008DB
:100F3A0083120313930008008316031311081F3941
:100F4A00031DA82FA92FA12F1419AC2FAD2FA12F44
:100F5A000800831603138715071608308312031334
:100F6A0094002830940083160313910109309300EA
:100F7A00940108008316031385010030F300003042
:100F8A00F2000030F1006430F0000A128A11AE2734
:100F9A000A128A110230F6000430F500BA30F40061
:100FAA00F40BD52FF50BD52FF60BD52F00000A120F
:100FBA008A1185270A128A112630F0000030F100C2
:100FCA000A128A1197270A128A11AA30F0000030F1
:100FDA00F1000A128A1197270A128A110A128A1133
:100FEA008E270A128A11DC2F0A128A11002883011D
:060FFA000A128A11BF2F4C
:08400000FF3FFF3FFF3FFF3FC0
:04400E00D420FF3F7C
:00000001FF
