:060000000A128A110C280F
:10000800FE00030EF1000A08F2000A128A11732B8F
:100018000A128A110F28FA0183010A128A11492B40
:10002800831203132A08031D1A281B2899292B0356
:10003800031D1F2820287D282C03031D242825287C
:100048007D288316031787158316031318080438A9
:10005800EF399800831203132808A0002908A1008B
:100068000030A11BFF30A200A3000030A7007A30A7
:10007800A6001230A5000030A4000A128A1102223C
:100088000A128A11831203132308BB002208BA003C
:100098002108B9002008B8000030A3000030A200F1
:1000A8000030A1000430A0003B08A7003A08A600D1
:1000B8003908A5003808A4000A128A1102220A1277
:1000C8008A11831203132008FF3EB2002108031887
:1000D800013EFF3EB3003308831603139A008312D0
:1000E8000313320883160313990083120313981716
:1000F800012A2B03031D81288228DE282C08031DD2
:1001080086288728DE28831603178715EB30831285
:100118000313AD002D0883160313980583120313E8
:100128002808A0002908A1000030A11BFF30A20068
:10013800A3000030A7007A30A6001230A5000030D6
:10014800A4000A128A1102220A128A1183120313C6
:100158002308BB002208BA002108B9002008B8000B
:100168000030A3000030A2000030A1001030A00031
:100178003B08A7003A08A6003908A5003808A400DB
:100188000A128A1102220A128A1183120313200802
:10019800FF3EB40021080318013EFF3EB5003508B4
:1001A800831603139A008312031334088316031368
:1001B800990079282B08031DE228E3283A292C0303
:1001C800031DE728E8283A29F730AD002D088316E3
:1001D800031787058316031318080438EF399800A6
:1001E800831203132808A0002908A1000030A11BCE
:1001F800FF30A200A3000030A7007A30A60012301A
:10020800A5000030A4000A128A1102220A128A11DB
:10021800831203132308BB002208BA002108B9007F
:100228002008B8000030A3000030A2000030A10070
:100238001030A0003B08A7003A08A6003908A5001E
:100248003808A4000A128A1102220A128A1183129B
:1002580003132008FF3EAE0021080318013EFF3EAD
:10026800AF002E0883160313990079282B08031D65
:100278003E293F2998292C08031D432944299829F8
:10028800F730AD002D08831603178705EB3083126E
:100298000313AD002D088316031398058312031367
:1002A8002808A0002908A1000030A11BFF30A200E7
:1002B800A3000030A7007A30A6001230A500003055
:1002C800A4000A128A1102220A128A118312031345
:1002D8002308BB002208BA002108B9002008B8008A
:1002E8000030A3000030A2000030A1004030A00080
:1002F8003B08A7003A08A6003908A5003808A4005A
:100308000A128A1102220A128A1183120313200880
:10031800FF3EB00021080318013EFF3EB10030083F
:100328008316031399007928012A2A03031D9D299E
:100338009E29012A2B03031DA229A329A729831675
:1003480003178715AD29F730AD002D08831603175D
:100358008705EF3083120313AD002D0883160313AE
:100368009805831203132808A0002908A10000306B
:10037800A11BFF30A200A3000030A7007A30A6001E
:100388001230A5000030A4000A128A1102220A12B3
:100398008A11831203132308BB002208BA0021081C
:1003A800B9002008B8000030A3000030A2000030D7
:1003B800A1000430A0003B08A7003A08A6003908AD
:1003C800A5003808A4000A128A1102220A128A110A
:1003D800831203132008FF3EB60021080318013ECC
:1003E800FF3EB7003708831603139A0083120313DE
:1003F800360883160313990079280800F50183123B
:100408000313A31F082A092A162AA009A109A20969
:10041800A309A00A0319A10A0319A20A0319A30A26
:10042800F501F50AA71F192A1A2A292AA409A509D4
:10043800A609A709A40A0319A50A0319A60A0319F4
:10044800A70A0130F3007308F5060030F900003000
:10045800F8000030F7000030F600230822042104D9
:1004680020040319382A392A862AF401F40A492A69
:100478000130F3000310A00DA10DA20DA30DF30B85
:100488003E2A0130F3007308F407A31F4C2A4D2AB3
:100498003C2A0130F3000310F60DF70DF80DF90DA5
:1004A800F30B4F2A23082702031D642A2208260279
:1004B800031D642A21082502031D642A200824023A
:1004C800031C672A682A772A2008A4022108031C2B
:1004D800210FA5022208031C220FA6022308031CD1
:1004E800230FA702761401300310A30CA20CA10C51
:1004F800A00CFF3E031D782A0130F402031D852A53
:10050800862A4D2A750803198A2A8B2A962AF609FB
:10051800F709F809F909F60A0319F70A0319F80A95
:100528000319F90A7908A3007808A2007708A1003E
:100538007608A0000800F50007307506031DA52AF7
:10054800A62AAB2A7030831603138F04022B0630B9
:100558007506031DB02AB12AB82A831603130F089B
:100568008F3960388F00022B05307506031DBD2AB0
:10057800BE2AC52A831603130F088F3950388F00F7
:10058800022B04307506031DCA2ACB2AD22A8316E9
:1005980003130F088F3940388F00022B033075067C
:1005A800031DD72AD82ADF2A831603130F088F3989
:1005B80030388F00022B02307506031DE42AE52A25
:1005C800EC2A831603130F088F3920388F00022B6B
:1005D8007503031DF02AF12AF82A831603130F085E
:1005E8008F3910388F00022B7508031DFC2AFD2A4D
:1005F800022B8F30831603138F05022B7303031D01
:10060800062B072B0B2B831603130F14162B7308BB
:10061800031D0F2B102B162BFE30F40074088316C5
:1006280003138F050800F5007508031D1C2B1D2BEF
:10063800242B8312031318082038EF3998002C2B29
:100648007503031D282B292B2C2B83120313181633
:100658007303031D302B312B392BC030F400740881
:100668008B04831603138C16482B7308031D3D2B2C
:100678003E2B482B3F30F40074088B05DF30F40024
:100688007408831603138C050800F30107300A1257
:100698008A119F220A128A110A128A118A230A12BF
:1006A8008A11803083120313A8002530A900AA01FB
:1006B800AB01AC010A128A1114200A128A11F30143
:1006C800F30A01300A128A1117230A128A117A08CA
:1006D8008312031385006B2B0A128A110C280A1245
:1006E8008A1182230A128A11F0007008FA0072082F
:1006F8008A00710E8300FE0E7E0E0900831203131A
:100708008C1E872B882B892B1A0808008316031345
:04071800850108004F
:08400000FF3FFF3FFF3FFF3FC0
:04400E00D420FF3F7C
:00000001FF
