:060000000A128A110C280F
:10000800FE00030EF2000A08F3000A128A1196286D
:100018000A128A110F280A128A115B210A128A1100
:10002800F900F601F701F80183010A128A1137294C
:1000380083120313A00007302006031D2428252857
:100048002A287030831603138F048128063020066F
:10005800031D2F2830283728831603130F088F39DC
:1000680060388F00812805302006031D3C283D2874
:100078004428831603130F088F3950388F008128BE
:1000880004302006031D49284A28512883160313E3
:100098000F088F3940388F00812803302006031D50
:1000A800562857285E28831603130F088F393038CF
:1000B8008F00812802302006031D632864286B28DE
:1000C800831603130F088F3920388F0081282003E7
:1000D800031D6F2870287728831603130F088F399C
:1000E80010388F0081282008031D7B287C28812850
:1000F8008F30831603138F0581287403031D852809
:1001080086288A28831603130F1495287408031D5C
:100118008E288F289528FE30F5007508831603135E
:100128008F050800831203138C1D9B289C28F42834
:10013800EF30F00070089405141BA328A428A82801
:10014800941FA728A828B4281308F000F101700804
:10015800F6007108F7003F30F00070089405141697
:1001680083160313941AB928BA28D3281419BD285A
:10017800BE28D328831203131308F000F101700876
:10018800F6007108F70083160313141CCC28CD2839
:10019800C72883120313130885001416F228941A2B
:1001A800D628D728F228141DDA28DB28F22883124B
:1001B80003131308F000F1017008F6007108F70046
:1001C800831603131410790883120313930014166B
:1001D800831603131418F128F228EC2883128C11C3
:1001E80073088A00720E8300FE0E7E0E09008316C5
:1001F800031394171830F400740887048312031348
:100208002208831603139300831203132408F400AF
:1002180002300310F40DFF3E031D0D290310740D69
:1002280023043038F5007508940420082104031DC0
:100238001E291F292629F730F40074088316031392
:100248008C05362920032104031D2B292C29362946
:10025800C030F40074088B04831603138C158312C2
:1002680003138C150800F40107300A128A111C20A8
:100278000A128A11831603138501013083120313AE
:10028800A0000030A1003230A6002608A2000630E7
:10029800A7002708A3000030A400A5000A128A11AD
:1002A800FB200A128A1157290A128A110C283234A3
:08400000FF3FFF3FFF3FFF3FC0
:04400E00D420FF3F7C
:00000001FF
