:060000000A128A110C280F
:10000800FE00030EF2000A08F3000A128A115A2BA6
:100018000A128A110F28F70183010A128A11112B7B
:10002800831203133008031D1A281B28952931034E
:10003800031D1F2820287D283203031D2428252876
:100048007D288316031787158316031318080438A9
:10005800EF399800831203132E08A0002F08A1007F
:100068000030A11BFF30A200A3000030A7007A30A7
:10007800A6001230A5000030A4000A128A11FC2143
:100088000A128A11831203132308C0002208BF0032
:100098002108BE002008BD000030A3000030A200E7
:1000A8000030A1000430A0004008A7003F08A600C7
:1000B8003E08A5003D08A4000A128A11FC210A1274
:1000C8008A11831203132008FF3EB7002108031882
:1000D800013EFF3EB8003808831603139A008312C6
:1000E8000313370883160313990083120313981711
:1000F800FB293103031D81288228DC283208031DCF
:1001080086288728DC28831603178715EB30F50027
:100118007508831603139805831203132E08A0008D
:100128002F08A1000030A11BFF30A200A30000305F
:10013800A7007A30A6001230A5000030A4000A12E9
:100148008A11FC210A128A11831203132308C000A2
:100158002208BF002108BE002008BD000030A3000F
:100168000030A2000030A1001030A0004008A70015
:100178003F08A6003E08A5003D08A4000A128A11FF
:10018800FC210A128A11831203132008FF3EB900CA
:1001980021080318013EFF3EBA003A0883160313EC
:1001A8009A008312031339088316031399007928D8
:1001B8003108031DE028E12838293203031DE5280A
:1001C800E6283829F730F5007508831603178705E0
:1001D8008316031318080438EF39980083120313A1
:1001E8002E08A0002F08A1000030A11BFF30A2009C
:1001F800A3000030A7007A30A6001230A500003016
:10020800A4000A128A11FC210A128A11831203130C
:100218002308C0002208BF002108BE002008BD0036
:100228000030A3000030A2000030A1001030A00070
:100238004008A7003F08A6003E08A5003D08A40006
:100248000A128A11FC210A128A1183120313200848
:10025800FF3EB30021080318013EFF3EB4003308F7
:1002680083160313990079283108031D3C293D2979
:1002780094293208031D412942299429F730F500B1
:100288007508831603178705EB30F5007508831684
:1002980003139805831203132E08A0002F08A1004A
:1002A8000030A11BFF30A200A3000030A7007A3065
:1002B800A6001230A5000030A4000A128A11FC2101
:1002C8000A128A11831203132308C0002208BF00F0
:1002D8002108BE002008BD000030A3000030A200A5
:1002E8000030A1004030A0004008A7003F08A60049
:1002F8003E08A5003D08A4000A128A11FC210A1232
:100308008A11831203132008FF3EB5002108031841
:10031800013EFF3EB600350883160313990079287D
:10032800FB293003031D99299A29FB293103031D51
:100338009E299F29A329831603178715A929F73012
:10034800F5007508831603178705EF30F500750863
:10035800831603139805831203132E08A0002F0891
:10036800A1000030A11BFF30A200A3000030A700AD
:100378007A30A6001230A5000030A4000A128A11B3
:10038800FC210A128A11831203132308C0002208D1
:10039800BF002108BE002008BD000030A3000030C7
:1003A800A2000030A1000430A0004008A7003F08C8
:1003B800A6003E08A5003D08A4000A128A11FC21E7
:1003C8000A128A11831203132008FF3EBB0021087A
:1003D8000318013EFF3EBC003C08831603139A0035
:1003E800831203133B088316031399007928080026
:1003F80083120313A901A31F022A032A102AA009A2
:10040800A109A209A309A00A0319A10A0319A20AAA
:100418000319A30AA901A90AA71F132A142A232A20
:10042800A409A509A609A709A40A0319A50A031975
:10043800A60A0319A70A0130F4007408A9060030B7
:10044800AD000030AC000030AB000030AA0023083B
:100458002204210420040319322A332A802AA801FD
:10046800A80A432A0130F4000310A00DA10DA20D23
:10047800A30DF40B382A0130F4007408A807A31F51
:10048800462A472A362A0130F4000310AA0DAB0D7C
:10049800AC0DAD0DF40B492A23082702031D5E2A73
:1004A80022082602031D5E2A21082502031D5E2A52
:1004B80020082402031C612A622A712A2008A40247
:1004C8002108031C210FA5022208031C220FA602E3
:1004D8002308031C230FA7022A1401300310A30CBE
:1004E800A20CA10CA00CFF3E031D722A0130A80229
:1004F800031D7F2A802A472A29080319842A852A66
:10050800902AAA09AB09AC09AD09AA0A0319AB0AD2
:100518000319AC0A0319AD0A2D08A3002C08A20080
:100528002B08A1002A08A0000800F600073076066C
:10053800031D9F2AA02AA52A7030831603138F044F
:10054800FC2A06307606031DAA2AAB2AB22A83168D
:1005580003130F088F3960388F00FC2A05307606A0
:10056800031DB72AB82ABF2A831603130F088F3929
:1005780050388F00FC2A04307606031DC42AC52A89
:10058800CC2A831603130F088F3940388F00FC2AB2
:1005980003307606031DD12AD22AD92A83160313DB
:1005A8000F088F3930388F00FC2A02307606031D79
:1005B800DE2ADF2AE62A831603130F088F3920382C
:1005C8008F00FC2A7603031DEA2AEB2AF22A8316F7
:1005D80003130F088F3910388F00FC2A7608031D83
:1005E800F62AF72AFC2A8F30831603138F05FC2A74
:1005F8007403031D002B012B052B831603130F1403
:10060800102B7408031D092B0A2B102BFE30F50044
:100618007508831603138F050800F40107300A12C2
:100628008A1199220A128A110A128A113C230A1283
:100638008A110A128A1180230A128A1180308312C1
:100648000313AE002530AF00B001B101B2010A12A8
:100658008A1114200A128A110A128A1188230A128E
:100668008A11831203139F14382B0A128A110C283B
:10067800C030F40074088316031381040108F839A4
:100688000338810086168316031788018916831696
:1006980003139F01831203131F088038BF399F007B
:1006A8001F08C33934389F001F140800831203132E
:1006B8001E08F1007108F70077080A128A117423DE
:1006C8000A128A11BF30F1007108831203138C05D6
:1006D8009F1473088A00720E8300FE0E7E0E0900B6
:1006E800F00083160313981C7A2B7B2B752B70084C
:1006F8008312031399000800C030F40074088B04B7
:10070800831603130C1708008316031398160800A2
:08400000FF3FFF3FFF3FFF3FC0
:04400E00D420FF3F7C
:00000001FF
