:100000000C9437000C9471010C9471010C947101E3
:100010000C9471010C9471010C9471010C94710198
:100020000C9471010C9471010C9471010C94710188
:100030000C9471010C9471010C9471010C94710178
:100040000C9471010C9471010C9471010C94710168
:100050000C9471010C9471010C9471010C94710158
:100060000C9471010C9471010100010280001124B3
:100070001FBECFEFD8E0DEBFCDBFE8E6F0E040E046
:1000800017C0B591A59135912591059107FD0CC03B
:1000900095918591EF01F92FE82F05900D92A21708
:1000A000B307D9F7FE0104C01D92A217B307E1F709
:1000B000ED36F40731F70E941C010C946101F894AD
:0200C000FFCF70
:1000C200EF92FF920F93CF93DF93C82FD62F7A012F
:1000D200213069F484B18F7E84B984B18C6284B991
:1000E2008CB580618CBD802F0E9441010BC0211113
:1000F20009C084B1806184B984B1837D84B98CB52F
:100102008F7E8CBDC13031F4D13021F48CB5806E3C
:100112008CBD1AC0C11107C0D11105C08CB58F7139
:1001220080648CBD11C0C13039F4D11105C08CB5C9
:100132008F7D806C8CBD08C0C11106C0D13021F406
:100142008CB58F7180668CBDE114F10421F48CB5FD
:10015200837F8CBD19C081E0E816F10429F48CB5C7
:10016200837F88608CBD10C082E0E816F10429F418
:100172008CB5877F84608CBD07C083E0E816F104EC
:1001820019F48CB58C608CBDDF91CF910F91FF90EB
:04019200EF9008954D
:1001960081110CC028B181E090E002C0880F991F40
:1001A6006A95E2F78095822388B90895823061F4D2
:1001B60025B181E090E002C0880F991F6A95E2F7A9
:1001C6008095822385B90895813059F42BB181E059
:1001D60090E002C0880F991F6A95E2F78095822306
:0401E6008BB9089534
:1001EA0081110BC028B181E090E002C0880F991FED
:1001FA006A95E2F7822B88B90895823059F425B1BD
:10020A0081E090E002C0880F991F6A95E2F7822B7D
:10021A0085B90895813051F42BB181E090E002C094
:0E022A00880F991F6A95E2F7822B8BB9089511
:100238000E94560109E021E040E050E061E080E0E2
:100248000E9461008FE19EE40197F1F700C0000071
:1002580064E070E080E00E94CB00809100010E9481
:100268006C018EB58093010164E070E080E00E942B
:0A027800F500809101018BB9EBCF76
:10028200823010F0883021F49DB591609DBD09C087
:10029200823020F0883011F0893019F49DB59E7FAC
:0A02A2009DBD9CB5892B8CBD08950D
:1002AC0017B89FEF98B987B1806187B988B1806121
:0602BC0088B99AB908950B
:1002C200EC010E9476010E947501CE010E94770125
:0602D200CE010E94730141
:0A02D8008EBD0DB407FEFDCF0895A2
:0402E2000C94000078
:0402E6000E945F0013
:0202EA00089575
:0202EC00089573
:0202EE00089571
:00000001FF
