:100000000C943A000C9445010C9445010C94450164
:100010000C9445010C9445010C9445010C94450148
:100020000C9445010C9445010C9445010C94450138
:100030000C9445010C9445010C9445010C94450128
:100040000C9445010C9445010C9445010C94450118
:100050000C9445010C9445010C9445010C94450108
:100060000C9445010C944501010001010002980126
:100070000101028011241FBECFEFD8E0DEBFCDBF4B
:10008000E8E6F0E040E017C0B591A59135912591E3
:10009000059107FD0CC095918591EF01F92FE82F8F
:1000A00005900D92A217B307D9F7FE0104C01D9267
:1000B000A217B307E1F7E437F40731F70E94F8001D
:0800C0000C943501F894FFCF08
:1000C800EF92FF920F93CF93DF93C82FD62F7A0129
:1000D800213069F484B18F7E84B984B18C6284B98B
:1000E8008CB580618CBD802F0E9415010BC0211139
:1000F80009C084B1806184B984B1837D84B98CB529
:100108008F7E8CBDC13031F4D13021F48CB5806E36
:100118008CBD1AC0C11107C0D11105C08CB58F7133
:1001280080648CBD11C0C13039F4D11105C08CB5C3
:100138008F7D806C8CBD08C0C11106C0D13021F400
:100148008CB58F7180668CBDE114F10421F48CB5F7
:10015800837F8CBD19C081E0E816F10429F48CB5C1
:10016800837F88608CBD10C082E0E816F10429F412
:100178008CB5877F84608CBD07C083E0E816F104E6
:1001880019F48CB58C608CBDDF91CF910F91FF90E5
:04019800EF90089547
:10019C0081110CC028B181E090E002C0880F991F3A
:1001AC006A95E2F78095822388B90895823061F4CC
:1001BC0025B181E090E002C0880F991F6A95E2F7A3
:1001CC008095822385B90895813059F42BB181E053
:1001DC0090E002C0880F991F6A95E2F78095822300
:0401EC008BB908952E
:1001F0000E942A0109E021E040E050E061E080E057
:100200000E9464008FE19EE40197F1F700C00000B6
:1002100064E070E080E00E94CE00809100010E94C6
:0A02200040018EB580930101F8CF74
:10022A00823010F0883021F49DB591609DBD09C0DF
:10023A00823020F0883011F0893019F49DB59E7F04
:0A024A009DBD9CB5892B8CBD089565
:1002540017B89FEF98B987B1806187B988B1806179
:0602640088B99AB9089563
:10026A00EC010E944A010E944901CE010E944B0101
:06027A00CE010E944701C5
:0A0280008EBD0DB407FEFDCF0895FA
:04028A000C940000D0
:04028E000E94620068
:020292000895CD
:020294000895CB
:020296000895C9
:010298000F56
:00000001FF
