:060000000A128A11F52F1F
:100C26000F3483160313141C192E1A2E142E0800C3
:100C36007F30F000700883160313860583120313B2
:100C460086170800F00070088312031393000A1237
:100C56008A1114260A128A11831203131308080034
:100C6600F00107300A128A11D9260A128A110A12CD
:100C76008A111B260A128A11F0010030F100F200D7
:100C8600F301F30A0230F6007608F40000300A1287
:100C96008A1151270A128A110730F0000030F1003C
:100CA60001300A128A1166260A128A110F300A12B8
:100CB6008A1125260A128A11F6007608F700592E9F
:100CC6000A128A110028F4007408031D6B2E6C2E7C
:100CD6007D2E0130F200700A722E0310F20DFF3ED7
:100CE600031D702E7208FF3AF30073088312031374
:100CF6008505D82E7403031D812E822E932E013076
:100D0600F200700A882E0310F20DFF3E031D862E98
:100D16007208FF3AF3007308831203138605D82E70
:100D260002307406031D982E992EAA2E0130F20069
:100D3600700A9F2E0310F20DFF3E031D9D2E7208B2
:100D4600FF3AF3007308831203138705D82E033086
:100D56007406031DAF2EB02EC12E0130F200700AAC
:100D6600B62E0310F20DFF3E031DB42E7208FF3A95
:100D7600F3007308831203138805D82E0430740613
:100D8600031DC62EC72ED82E0130F200700ACD2EB6
:100D96000310F20DFF3E031DCB2E7208FF3AF3003F
:100DA6007308831203138905D82E0800F200073052
:100DB6007206031DDF2EE02EE52E70308316031318
:100DC6008F043C2F06307206031DEA2EEB2EF22E00
:100DD600831603130F088F3960388F003C2F0530B8
:100DE6007206031DF72EF82EFF2E831603130F0827
:100DF6008F3950388F003C2F04307206031D042FA4
:100E0600052F0C2F831603130F088F3940388F00D8
:100E16003C2F03307206031D112F122F192F831634
:100E260003130F088F3930388F003C2F02307206BB
:100E3600031D1E2F1F2F262F831603130F088F390E
:100E460020388F003C2F7203031D2A2F2B2F322FA1
:100E5600831603130F088F3910388F003C2F720842
:100E6600031D362F372F3C2F8F30831603138F0524
:100E76003C2F7003031D402F412F452F831603136C
:100E86000F14502F7008031D492F4A2F502FFE3084
:100E9600F1007108831603138F05080083160313E8
:100EA60087127303031D582F592FAF2F8711700315
:100EB600031D5E2F5F2F612F94176A2F7008031D85
:100EC600652F662F6A2F7F30F50075089405710827
:100ED6007204031D6F2F702F7C2FBF30F50075082D
:100EE600940574082038F5007508831203139404DA
:100EF600F42F71037204031D812F822F8B2F141779
:100F060074082038F5007508831203139404F42F2F
:100F1600023071067204031D912F922F9E2FBF304F
:100F2600F5007508940574083038F50075088312C5
:100F360003139404F42F033071067204031DA42FC7
:100F4600A52FAE2F141774083038F50075088312D4
:100F560003139404F42FF42F7308031DB32FB42F37
:100F6600F42F871571087204031DBA2FBB2FC62FE5
:100F7600BF30F500750894052430F5007508831216
:100F860003139404F42F71037204031DCB2FCC2F8B
:100F9600D42F14172430F500750883120313940414
:100FA600F42F023071067204031DDA2FDB2FE62FB1
:100FB600BF30F500750894053430F50075088312C6
:100FC60003139404F42F033071067204031DEC2FEF
:100FD600ED2FAE2F14173430F50075088312031366
:100FE600940408000A128A1113260A128A11F800BC
:0A0FF600F70183010A128A11332E5D
:08400000FF3FFF3FFF3FFF3FC0
:04400E00D420FF3F7C
:00000001FF
