:060000000A128A110C280F
:10000800FE00030EF1000A08F2000A128A111428F1
:100018000A128A110F28F30183010A128A11622831
:1000280083120313080E0139F0000130F006F00EB8
:1000380008087006EF39700688000C1F2428252848
:1000480039281E08F0007008F3007308850073084B
:100058009500080E0139F0000130F006F00E08088E
:100068007006EF39700688000C1372088A00710E4A
:100078008300FE0E7E0E09007830831603138F006E
:1000880085012130860087018801831603178801BE
:1000980030308900C0308B004030831603138C0049
:1000A800B530831203139F00831603139F01831235
:1000B8000313850186018701880108000A128A1145
:1000C80040200A128A110A128A1175200A128A110E
:1000D8000A128A1182200A128A116C280A128A11BD
:1000E8000C28F9308316031392003C308312031353
:1000F80097007C30950007309200080083120313A4
:0C0108009F188728882889289F14080069
:08400000FF3FFF3FFF3FFF3FC0
:04400E00D420FF3F7C
:00000001FF
