:020000020000FC
:100000000E941D000E9425000E942D0045980E941C
:100010003700459AA0917900ABB920937C000E94EB
:100020003E0045980E943700459A5091790055B995
:1000300010937C000E943E00E9CF00E207B900E087
:1000400008B90FEF04B90AB9089510E610937C00BF
:1000500005E800937A0021E6089505EC30E041E0E0
:1000600050E060E080E091E0B0E0C0E208950093ED
:100070007A0070917A0074FFFCCF089500003395E8
:0A008000341709F0FBCF00000895CB
:00000001FF
