:100000000C9437000C9458010C9458010C9458012E
:100010000C9458010C9458010C9458010C945801FC
:100020000C9458010C9458010C9458010C945801EC
:100030000C9458010C9458010C9458010C945801DC
:100040000C9458010C9458010C9458010C945801CC
:100050000C9458010C9458010C9458010C945801BC
:100060000C9458010C9458010100010180001124E6
:100070001FBECFEFD8E0DEBFCDBFE8E6F0E040E046
:1000800017C0B591A59135912591059107FD0CC03B
:1000900095918591EF01F92FE82F05900D92A21708
:1000A000B307D9F7FE0104C01D92A217B307E1F709
:1000B000ED36F40731F70E943B010C944901F894A6
:0200C000FFCF70
:1000C20097B1906397B998B1906398B997B19F7CB3
:1000D20097B98130D9F018F0823071F1089561300A
:1000E20051F028F0623059F0633069F0089580E2EF
:1000F2008093B800089588E08093B800089582E064
:100102008093B80008951092B8000895613051F0BC
:1001120028F0623059F0633061F0089588E08093EE
:10012200B800089582E08093B80008951092B80054
:1001320008951092B8000895613051F028F06230AD
:1001420051F0633059F0089582E08093B800089529
:100152001092B80008951092B80008951092B80055
:020162000895FE
:10016400DF92EF92FF920F931F93CF93DF93C82FE9
:100174007B01D42E0E9426018C2F880F0E940F0130
:10018400C0E0D0E00AC087010C0F1D1F81E090E0A1
:100194000E94E700F801808321968D2D90E001975D
:1001A400C817D90784F3EC01CE0DDF1D80E090E081
:1001B4000E94E70088830E945401DF91CF911F9130
:0A01C4000F91FF90EF90DF90089577
:1001CE00019789F484EC8093BC008091BC00882355
:1001DE00E4F78091B900887F8034B1F08BB18068EC
:1001EE008BB980E8089584E88093BC008091BC00B0
:1001FE008823E4F78091B900887F883429F08BB189
:10020E0080648BB980E808951BB88091BB00089577
:10021E008093BB0084E88093BC008091BC0088234F
:10022E00E4F78091B900887F803441F08091B90065
:0E023E00887F883119F08BB182608BB90895EA
:10024C0084EA8093BC008091BC008823E4F7809101
:10025C00B900887F883041F08091B900887F803167
:0A026C0019F08BB181608BB9089581
:1002760060E081E00E94610041E060E071E086E1BB
:0C0286000E94B2008091000185B9F6CF03
:10029200EC010E945D010E945C01CE010E945E01A0
:0602A200CE010E945A018A
:0802A80084E98093BC00089575
:0402B0000C940000AA
:0402B4000E945F0045
:0202B8000895A7
:0202BA000895A5
:0202BC000895A3
:00000001FF
