:100000000C9434000C943C010C943C010C943C0185
:100010000C943C010C943C010C943C010C943C016C
:100020000C943C010C943C010C943C010C943C015C
:100030000C943C010C943C010C943C010C943C014C
:100040000C943C010C943C010C943C010C943C013C
:100050000C943C010C943C010C943C010C943C012C
:100060000C943C010C943C0111241FBECFEFD8E04E
:10007000DEBFCDBFE8E6F0E040E017C0B591A59146
:1000800035912591059107FD0CC095918591EF0162
:10009000F92FE82F05900D92A217B307D9F7FE01AB
:1000A00004C01D92A217B307E1F7E836F40731F751
:0C00B0000E9412010C942D01F894FFCF67
:1000BC0097B1906397B998B1906398B997B19F7CB9
:1000CC0097B9813091F120F0823009F45AC008952B
:1000DC00613079F028F06230B1F06330F1F00895BE
:1000EC0080E28093B800E9EBF0E080818C7F808324
:1000FC00089588E08093B800E9EBF0E080818D7F73
:10010C0081608083089582E08093B800E9EBF0E091
:10011C0080818E7F8260808308951092B800E9EB15
:10012C00F0E08081836080830895613079F028F05D
:10013C006230B1F06330E9F0089588E08093B80044
:10014C00E9EBF0E080818C7F8083089582E08093DE
:10015C00B800E9EBF0E080818D7F816080830895A9
:10016C001092B800E9EBF0E080818E7F8260808392
:10017C0008951092B800E9EBF0E0808183608083F1
:10018C000895613079F028F06230A9F06330E1F025
:10019C00089582E08093B800E9EBF0E080818C7FD9
:1001AC00808308951092B800E9EBF0E080818D7F98
:1001BC008160808308951092B800E9EBF0E08081B3
:1001CC008E7F8260808308951092B800E9EBF0E096
:0801DC00808183608083089597
:1001E4008093BB0084E88093BC008091BC0088238A
:1001F400E4F78091B900887F803411F08091B900D0
:0202040008955B
:1002060084EA8093BC008091BC008823E4F7809147
:0E021600B900887F883011F08091B9000895FA
:1002240060E081E00E945E000E94030186E20E9479
:0E023400F2008AEA0E9421010E943801F5CFF3
:100242008093BB0084E88093BC008091BC0088232B
:08025200E4F78091B900089562
:10025A00EC010E9441010E944001CE010E9442012C
:06026A00CE010E943E01DE
:0802700084E98093BC000895AD
:040278000C940000E2
:04027C000E945C0080
:020280000895DF
:020282000895DD
:020284000895DB
:00000001FF
