:02000000402896
:10000800A200030EA30087130C1F19281E08A400C2
:100018001F1D11282408850015281F1915282408D4
:10002800880004309F060C138717230E8300A20E46
:04003800220E09008B
:100080006D2050206220482045289F1C9F14452841
:1000900003138312B5309F00031383169F010800DA
:1000A0000313831685012130860087018801031719
:1000B000831688013030890003138312850187017C
:1000C0008801080003138316C0308B0040308C0079
:1000D0000313831200308C0008000313831678305A
:0400E0008F00080085
:04400E00D420FF3F7C
:00000001FF
